{
  "contractName": "Storage",
  "abi": [
    {
      "inputs": [],
      "name": "_initialized",
      "outputs": [
        {
          "internalType": "bool",
          "name": "",
          "type": "bool"
        }
      ],
      "stateMutability": "view",
      "type": "function"
    },
    {
      "inputs": [],
      "name": "owner",
      "outputs": [
        {
          "internalType": "address",
          "name": "",
          "type": "address"
        }
      ],
      "stateMutability": "view",
      "type": "function"
    }
  ],
  "bytecode": "0x608060405234801561001057600080fd5b50610178806100206000396000f3fe608060405234801561001057600080fd5b50600436106100365760003560e01c80633072cf601461003b5780638da5cb5b14610059575b600080fd5b610043610077565b60405161005091906100cb565b60405180910390f35b61006161008a565b60405161006e9190610127565b60405180910390f35b600560149054906101000a900460ff1681565b600560009054906101000a900473ffffffffffffffffffffffffffffffffffffffff1681565b60008115159050919050565b6100c5816100b0565b82525050565b60006020820190506100e060008301846100bc565b92915050565b600073ffffffffffffffffffffffffffffffffffffffff82169050919050565b6000610111826100e6565b9050919050565b61012181610106565b82525050565b600060208201905061013c6000830184610118565b9291505056fea264697066735822122053f41a46fa81d3f6d7f6713dfa8dee918b12e95583be31cca4770c1819044b5164736f6c634300080b0033",
  "immutableReferences": {},
  "source": "pragma solidity ^0.8.1;\n\ncontract Storage {\n\tmapping (string => uint256) _uintStorage; \n\tmapping (string => address) _addressStorage;\n\tmapping (string => bool) _boolStorage;\n\tmapping (string => string) _stringStorage;\n\tmapping (string => bytes4) _bytesStorage; \n\taddress public owner; \n\tbool public _initialized; \n}",
  "sourcePath": "/Users/taylereverett/proxyContract/contracts/Storage.sol",
  "compiler": {
    "name": "solc",
    "version": "0.8.11+commit.d7f03943.Emscripten.clang"
  },
  "schemaVersion": "3.4.4",
  "updatedAt": "2022-03-10T20:18:01.077Z",
  "devdoc": {
    "kind": "dev",
    "methods": {},
    "version": 1
  },
  "userdoc": {
    "kind": "user",
    "methods": {},
    "version": 1
  }
}